{"abi":[{"type":"constructor","inputs":[],"stateMutability":"nonpayable"},{"type":"function","name":"clearLogs","inputs":[],"outputs":[],"stateMutability":"nonpayable"},{"type":"function","name":"getLog","inputs":[{"name":"index","type":"uint256","internalType":"uint256"}],"outputs":[{"name":"","type":"address","internalType":"address"},{"name":"","type":"string","internalType":"string"},{"name":"","type":"uint256","internalType":"uint256"}],"stateMutability":"view"},{"type":"function","name":"getLogCount","inputs":[],"outputs":[{"name":"","type":"uint256","internalType":"uint256"}],"stateMutability":"view"},{"type":"function","name":"logCount","inputs":[],"outputs":[{"name":"","type":"uint256","internalType":"uint256"}],"stateMutability":"view"},{"type":"function","name":"logMessage","inputs":[{"name":"message","type":"string","internalType":"string"}],"outputs":[],"stateMutability":"nonpayable"},{"type":"function","name":"logs","inputs":[{"name":"","type":"uint256","internalType":"uint256"}],"outputs":[{"name":"sender","type":"address","internalType":"address"},{"name":"message","type":"string","internalType":"string"},{"name":"timestamp","type":"uint256","internalType":"uint256"}],"stateMutability":"view"},{"type":"function","name":"owner","inputs":[],"outputs":[{"name":"","type":"address","internalType":"address"}],"stateMutability":"view"},{"type":"event","name":"LogsCleared","inputs":[{"name":"clearedBy","type":"address","indexed":true,"internalType":"address"},{"name":"totalCleared","type":"uint256","indexed":false,"internalType":"uint256"}],"anonymous":false},{"type":"event","name":"MessageLogged","inputs":[{"name":"sender","type":"address","indexed":true,"internalType":"address"},{"name":"message","type":"string","indexed":false,"internalType":"string"},{"name":"timestamp","type":"uint256","indexed":false,"internalType":"uint256"}],"anonymous":false}],"bytecode":{"object":"0x6080604052348015600e575f5ffd5b50335f5f6101000a81548173ffffffffffffffffffffffffffffffffffffffff021916908373ffffffffffffffffffffffffffffffffffffffff1602179055505f600181905550610ea4806100625f395ff3fe608060405234801561000f575f5ffd5b506004361061007b575f3560e01c80638da5cb5b116100595780638da5cb5b146100eb5780639486baae14610109578063a503898f14610113578063e79899bd146101315761007b565b80633206b2c61461007f578063618033db146100b15780637c990052146100cf575b5f5ffd5b61009960048036038101906100949190610728565b610163565b6040516100a893929190610811565b60405180910390f35b6100b96102e6565b6040516100c6919061084d565b60405180910390f35b6100e960048036038101906100e49190610992565b6102ef565b005b6100f3610418565b60405161010091906109d9565b60405180910390f35b61011161043c565b005b61011b610538565b604051610128919061084d565b60405180910390f35b61014b60048036038101906101469190610728565b61053e565b60405161015a93929190610811565b60405180910390f35b5f60605f60028054905084106101ae576040517f08c379a00000000000000000000000000000000000000000000000000000000081526004016101a590610a3c565b60405180910390fd5b5f600285815481106101c3576101c2610a5a565b5b905f5260205f2090600302016040518060600160405290815f82015f9054906101000a900473ffffffffffffffffffffffffffffffffffffffff1673ffffffffffffffffffffffffffffffffffffffff1673ffffffffffffffffffffffffffffffffffffffff16815260200160018201805461023e90610ab4565b80601f016020809104026020016040519081016040528092919081815260200182805461026a90610ab4565b80156102b55780601f1061028c576101008083540402835291602001916102b5565b820191905f5260205f20905b81548152906001019060200180831161029857829003601f168201915b505050505081526020016002820154815250509050805f015181602001518260400151935093509350509193909250565b5f600154905090565b600260405180606001604052803373ffffffffffffffffffffffffffffffffffffffff16815260200183815260200142815250908060018154018082558091505060019003905f5260205f2090600302015f909190919091505f820151815f015f6101000a81548173ffffffffffffffffffffffffffffffffffffffff021916908373ffffffffffffffffffffffffffffffffffffffff16021790555060208201518160010190816103a19190610c95565b5060408201518160020155505060015f8154809291906103c090610d91565b91905055503373ffffffffffffffffffffffffffffffffffffffff167fb5200a0707d2b52d7942fd25f25b70b5015523c0970e541143cc0d82a1320133824260405161040d929190610dd8565b60405180910390a250565b5f5f9054906101000a900473ffffffffffffffffffffffffffffffffffffffff1681565b5f5f9054906101000a900473ffffffffffffffffffffffffffffffffffffffff1673ffffffffffffffffffffffffffffffffffffffff163373ffffffffffffffffffffffffffffffffffffffff16146104ca576040517f08c379a00000000000000000000000000000000000000000000000000000000081526004016104c190610e50565b60405180910390fd5b5f600280549050905060025f6104e09190610618565b5f6001819055503373ffffffffffffffffffffffffffffffffffffffff167f0b6780bdb6cf30563106fa0324a7c5177e483f754501994d635349d2545c77f38260405161052d919061084d565b60405180910390a250565b60015481565b6002818154811061054d575f80fd5b905f5260205f2090600302015f91509050805f015f9054906101000a900473ffffffffffffffffffffffffffffffffffffffff169080600101805461059190610ab4565b80601f01602080910402602001604051908101604052809291908181526020018280546105bd90610ab4565b80156106085780601f106105df57610100808354040283529160200191610608565b820191905f5260205f20905b8154815290600101906020018083116105eb57829003601f168201915b5050505050908060020154905083565b5080545f8255600302905f5260205f20906106339190610635565b565b5f5b80821115610688578281015f5f82015f6101000a81549073ffffffffffffffffffffffffffffffffffffffff0219169055600182015f610677919061068d565b600282015f90555050600301610637565b505050565b50805461069990610ab4565b5f825580601f106106ab5750506106c5565b601f0160209004905f5260205f20906106c491906106c7565b5b565b5f5b808211156106df578281015f90556001016106c9565b505050565b5f604051905090565b5f5ffd5b5f5ffd5b5f819050919050565b610707816106f5565b8114610711575f5ffd5b50565b5f81359050610722816106fe565b92915050565b5f6020828403121561073d5761073c6106ed565b5b5f61074a84828501610714565b91505092915050565b5f73ffffffffffffffffffffffffffffffffffffffff82169050919050565b5f61077c82610753565b9050919050565b61078c81610772565b82525050565b5f81519050919050565b5f82825260208201905092915050565b8281835e5f83830152505050565b5f601f19601f8301169050919050565b5f6107d482610792565b6107de818561079c565b93506107ee8185602086016107ac565b6107f7816107ba565b840191505092915050565b61080b816106f5565b82525050565b5f6060820190506108245f830186610783565b818103602083015261083681856107ca565b90506108456040830184610802565b949350505050565b5f6020820190506108605f830184610802565b92915050565b5f5ffd5b5f5ffd5b7f4e487b71000000000000000000000000000000000000000000000000000000005f52604160045260245ffd5b6108a4826107ba565b810181811067ffffffffffffffff821117156108c3576108c261086e565b5b80604052505050565b5f6108d56106e4565b90506108e1828261089b565b919050565b5f67ffffffffffffffff821115610900576108ff61086e565b5b610909826107ba565b9050602081019050919050565b828183375f83830152505050565b5f610936610931846108e6565b6108cc565b9050828152602081018484840111156109525761095161086a565b5b61095d848285610916565b509392505050565b5f82601f83011261097957610978610866565b5b8135610989848260208601610924565b91505092915050565b5f602082840312156109a7576109a66106ed565b5b5f82013567ffffffffffffffff8111156109c4576109c36106f1565b5b6109d084828501610965565b91505092915050565b5f6020820190506109ec5f830184610783565b92915050565b7f496e646578206f7574206f6620626f756e6473000000000000000000000000005f82015250565b5f610a2660138361079c565b9150610a31826109f2565b602082019050919050565b5f6020820190508181035f830152610a5381610a1a565b9050919050565b7f4e487b71000000000000000000000000000000000000000000000000000000005f52603260045260245ffd5b7f4e487b71000000000000000000000000000000000000000000000000000000005f52602260045260245ffd5b5f6002820490506001821680610acb57607f821691505b602082108103610ade57610add610a87565b5b50919050565b5f819050815f5260205f209050919050565b5f6020601f8301049050919050565b5f82821b905092915050565b5f60088302610b407fffffffffffffffffffffffffffffffffffffffffffffffffffffffffffffffff82610b05565b610b4a8683610b05565b95508019841693508086168417925050509392505050565b5f819050919050565b5f610b85610b80610b7b846106f5565b610b62565b6106f5565b9050919050565b5f819050919050565b610b9e83610b6b565b610bb2610baa82610b8c565b848454610b11565b825550505050565b5f5f905090565b610bc9610bba565b610bd4818484610b95565b505050565b5f5b82811015610bfa57610bef5f828401610bc1565b600181019050610bdb565b505050565b601f821115610c4d5782821115610c4c57610c1981610ae4565b610c2283610af6565b610c2b85610af6565b6020861015610c38575f90505b808301610c4782840382610bd9565b505050505b5b505050565b5f82821c905092915050565b5f610c6d5f1984600802610c52565b1980831691505092915050565b5f610c858383610c5e565b9150826002028217905092915050565b610c9e82610792565b67ffffffffffffffff811115610cb757610cb661086e565b5b610cc18254610ab4565b610ccc828285610bff565b5f60209050601f831160018114610cfd575f8415610ceb578287015190505b610cf58582610c7a565b865550610d5c565b601f198416610d0b86610ae4565b5f5b82811015610d3257848901518255600182019150602085019450602081019050610d0d565b86831015610d4f5784890151610d4b601f891682610c5e565b8355505b6001600288020188555050505b505050505050565b7f4e487b71000000000000000000000000000000000000000000000000000000005f52601160045260245ffd5b5f610d9b826106f5565b91507fffffffffffffffffffffffffffffffffffffffffffffffffffffffffffffffff8203610dcd57610dcc610d64565b5b600182019050919050565b5f6040820190508181035f830152610df081856107ca565b9050610dff6020830184610802565b9392505050565b7f4f6e6c79206f776e65722063616e20636c656172206c6f6773000000000000005f82015250565b5f610e3a60198361079c565b9150610e4582610e06565b602082019050919050565b5f6020820190508181035f830152610e6781610e2e565b905091905056fea2646970667358221220a6a931b492467b79ebf52633ddad8de1eb6cf25749b37c7bd34276fa396cb21f64736f6c63430008230033","linkReferences":{}},"methodIdentifiers":{"clearLogs()":"9486baae","getLog(uint256)":"3206b2c6","getLogCount()":"618033db","logCount()":"a503898f","logMessage(string)":"7c990052","logs(uint256)":"e79899bd","owner()":"8da5cb5b"},"id":19}